:03000000020D509E
:0C0D5000787FE4F6D8FD75811D020D9738
:0B11400050726F6D6574686575730078
:09116B00120F041210CE0210FC58
:100DDC00EE7075EF120A000E0E000E2E010E22029E
:100DEC000E28030E08040E4D050E1C060E3A080EB6
:100DFC00340C0E46100E401800000E547D2C7F2C27
:100E0C00803C7D1E7F1E1210557F147E00021079CF
:100E1C007D287F1980287D287F1180227D377F23B4
:100E2C00801C7D377F1180167D197F2780107D11E6
:100E3C007F27800A7D197F3880047D117F3802104E
:090E4C00317F2C7E0112111122EC
:100E5500EE706EEF120A000E83000EA1010E9502D0
:100E65000E9B030E81040E81050E91060EAD080E34
:100E7500A70C0EB9100EB31800000EC6803C7D1EDF
:100E85007F1E1210317F147E000210797D198002B9
:100E95007D117F2880287D237F3780227D117F3734
:100EA500801C7D277F1980167D277F1180107D3856
:100EB5007F19800A7D387F1180047D2C7F2C1210CC
:020EC5005522B4
:100C0C00E4F508F50912116B7D1E7F1E1211337B62
:100C1C00FF7A117940750F0A7D03E4FF120FDD3066
:100C2C00801430811130820E30830B30840805091A
:100C3C00E50970020508E50964054508603CA280D9
:100C4C00E4FE33FFA281E4FC33FDA282E4FA33FB21
:100C5C00A283E433751000F511A284E433751200FD
:100C6C00F513120A268F1C7E00120DDC7F647E00A9
:100C7C001210797F01120EC780A5308014308111BB
:100C8C0030820E30830B3084080509E509700205AB
:100C9C0008E50964074508603CA280E4FE33FFA226
:100CAC0081E4FC33FDA282E4FA33FBA283E43375C6
:100CBC001000F511A284E433751200F513120A2604
:100CCC008F1C7E00120E557F647E001210797F01FE
:100CDC00120EC780A530801430811130820E308303
:100CEC000B3084080509E50970020508E50964095B
:100CFC004508603CA280E4FE33FFA281E4FC33FD96
:100D0C00A282E4FA33FBA283E433751000F511A23E
:100D1C0084E433751200F513120A268F1C7E001220
:100D2C000DDC7F647E001210797F01120EC780A546
:100D3C007F01120EC7E4FDFF1210317F2C7E0112D1
:040D4C00107980F1A9
:0A100800C286D2878FA07F017E0010
:10101200E4FDFCC3ED9FEC9E50147B737A00EB1B46
:0E10220070011AEB4A70F70DBD00010C80E55D
:01103000229D
:08117400C285121008C2872297
:03114B002430FF4E
:08114E00D285121008C28722AD
:0A0F7B001211747F0A7E001210129A
:100F8500790A75A0FFC285D286D2877F037E0012BB
:100F95001012C28712101219E9D394004005E5A07A
:0B0FA50020E0E6E960037F00227F01EE
:010FB000221E
:100F04007F0F120F807F381211747F05120F807FBC
:100F1400381211747F01120F807F38121174120F6E
:100F2400857F08120F7B7F01120F7B7F06120F7BD8
:0C0F34007F0C1211747F0A7E0002101264
:10109800EFD3940140027F01EDD3940F40027D0FFE
:0C10A800EF75F040A42D4480FF0211748D
:0A116100A903121098AF0102114E0D
:060FDD008B0C8A0D890E49
:100FE300121098E4F510E510C3950F5017AB0CAA37
:100FF3000DA90E8510827583001209C5FF12114ECB
:04100300051080E272
:0110070022C6
:100EC700E4FD1210987F5412114E7F6912114E7F64
:100ED7006D12114E7F6512114E7F2012114EE517CC
:100EE70012114BE51812114B7F3A12114EE51524DA
:0D0EF70030FF12114EE5162430FF02114E9F
:0910E600011A00011932011B324C
:0B115600EF1FAC0670011E4C70F6226B
:10107900E4FDFCC3ED9FEC9E50147B737A00EB1BDF
:0E10890070011AEB4A70F70DBD00010C80E5F6
:011097002236
:1010FC00E58954F04402F589758C95758A95D2A9C9
:05110C00D28CD2AF22DD
:03000B00020FB130
:100FB100C0E0C0D0051AE51AC394645013E51A9530
:100FC100194002C291E51AD3951B400BC2948007C8
:0C0FD100751A00D291D294D0D0D0E0323A
:0D113300C292C290C293C2958F198D1B22EB
:101031008D0AC292D290C293D295AC07E4120910E4
:101041007B9A7A997999783F1208001209448F198D
:04105100850A1B22CF
:101055008D0AD292C290D293C295AC07E4120910C0
:101065007B9A7A997999783F1208001209448F1969
:04107500850A1B22AB
:10111100C292D290D293C295751934751B1A0210DE
:011121007954
:10112200D292C290C293D295751906751B1A0210FB
:011132007943
:100A2600EF4E7016ED4C7012EB64014A700CE51136
:100A360045107006E51345126040EF4E701AED64DE
:100A4600014C7014EB64014A700EE5116401451007
:100A56007006E51345126022EF64014E701FED64C7
:100A6600014C7019EB64014A7013E51164014510DD
:100A7600700BE5136401451270037F0422EF4E707C
:100A860016ED4C7012EB4A700EE51145107008E534
:100A96001345127002FF22EF4E7018ED64014C7080
:100AA60012EB64014A700CE51145107006E513451A
:100AB600126020EF64014E701DED64014C7017EB5F
:100AC60064014A7011E511640145107009E513458A
:100AD6001270037F0622EF4E7016ED64014C701003
:100AE600EB4A700CE51145107006E5134512601EC1
:100AF600EF64014E701BED64014C7015EB64014A06
:100B0600700FE51145107009E513451270037F0259
:100B160022EF64014E7019ED64014C7013EB4A70BC
:100B26000FE51145107009E513451270037F032286
:100B3600EF64014E7017ED4C7013EB4A700FE51120
:100B460045107009E513451270037F0122EF4E70C0
:100B56001BED4C7017EB64014A7011E511640145F9
:100B6600107009E513451270037F0C22EF4E7019C1
:100B7600ED4C7015EB4A7011E511640145107009D2
:100B8600E513451270037F0822EF4E701BED4C7083
:100B960017EB4A7013E51164014510700BE51364F9
:100BA60001451270037F1822EF4E7019ED4C701537
:100BB600EB4A7011E5114510700BE51364014512FF
:100BC60070037F1022EF4E701AED4C7016EB640125
:100BD6004A7010E511640145107008E5136401457B
:100BE600126020EF4E701EED64014C7018EB64012C
:100BF6004A7012E51164014510700AE51364014557
:060C06001270027F0522BE
:0C10EF0001160001150001180001170097
:1010CE00E589540F4410F589758D3C758BB053B876
:0810DE0008D2ABD28ED2AF2282
:03001B00020F4091
:040F4000C0E0C0D07D
:100F4400758D3C758BB00514E514C394144023755A
:100F540014000516E516B40A197516000515E515ED
:100F6400B4060F7515000518E518B40A05751800C0
:020F740005175F
:050F7600D0D0D0E032F4
:1010B4008F1DE4FDFF121133C2B0AF1D7E0012106C
:0A10C40079D2B07D157F14021031BF
:10080000EC4D6011E8497017ED33EC3304600DE4F2
:10081000FCFFFEFD22E933E8330470F80209B01250
:10082000097B58046009E4CC248150062850090251
:1008300009BA2840030209B7C0E0EB4A7044B98006
:1008400006D0E0FB0209A6EF4E701CBD8008EBFF4E
:10085000EAFEE9FD80EBE98DF0A4FEE5F00208E98F
:10086000E9CDF9EAFEEBFFEF89F0A4FCE5F0CE89D3
:10087000F0A42EFFE435F0CD89F0A42DFEE435F090
:100880008067EF4E7005BD80D780C3EF8BF0A4ACBE
:10089000F0EE8BF0A42CFCE435F0F8EF8AF0A42CF9
:1008A000E5F038FCE433CB8DF0A42CFCE5F03BF80C
:1008B000EE8AF0A42CFCE5F038F8E433CF89F0A4FC
:1008C0002CFCE5F038CF3400CE89F0A42FFFE5F002
:1008D0003EFEE433C98DF0A42EFEE5F039CD8AF05A
:1008E000A42FFFE5F03EFEE43DFD33D0E0FB5007D2
:1008F0000BBB000F0209BAEC2CFCEF33FFEE33FE0A
:06090000ED33FD02099237
:1009060075F020800E75F010800575F0087D007E6C
:10091600007F003392D530D5031209F2EC33401034
:10092600EF33FFEE33FEED33FDEC33FCD5F0ED2275
:0E093600E5F0247EA2D513CC92E7CDCEFF22B1
:10094400EDD2E7CD33EC3392D524814006E4FFFEAB
:10095400FDFC22FCE4CFCECDCC24E0501174FF800A
:10096400EDC3CC13CCCD13CDCE13CECF13CF0470A7
:07097400F030D5DE0209F2AC
:10097B00E9D2E7C933E833F892D5EDD2E7CD33ECC2
:07098B0033FC5002B2D5223B
:10099200EC30E7100FBF000C0EBE00080DBD0004C6
:1009A2000BEB6014A2D5EB13FCED92E7FD2274FF72
:1009B200FCFDFEFF22E480F8A2D574FF13FC7D80CB
:0309C200E480EFDF
:100D5C00020C0CE493A3F8E493A34003F68001F295
:100D6C0008DFF48029E493A3F85407240CC8C33398
:100D7C00C4540F4420C8834004F456800146F6DF67
:100D8C00E4800B01020408102040809010E6E47E01
:100D9C00019360BCA3FF543F30E509541FFEE4935C
:100DAC00A360010ECF54C025E060A840B8E493A323
:100DBC00FAE493A3F8E493A3C8C582C8CAC583CA4E
:100DCC00F0A3C8C582C8CAC583CADFE9DEE780BE06
:0110FB0000F4
:1009C500BB010CE58229F582E5833AF583E02250E7
:1009D50006E92582F8E622BBFE06E92582F8E22231
:0D09E500E58229F582E5833AF583E493224B
:0E09F200C3E49FFFE49EFEE49DFDE49CFC2216
:100A0000D083D082F8E4937012740193700DA3A385
:100A100093F8740193F5828883E473740293686099
:060A2000EFA3A3A380DF99
:00000001FF
